{
  "contractName": "Edublocks",
  "abi": [
    {
      "constant": false,
      "inputs": [
        {
          "internalType": "string",
          "name": "n",
          "type": "string"
        },
        {
          "internalType": "string",
          "name": "pass",
          "type": "string"
        }
      ],
      "name": "addStudent",
      "outputs": [],
      "payable": false,
      "stateMutability": "nonpayable",
      "type": "function"
    },
    {
      "constant": false,
      "inputs": [
        {
          "internalType": "string",
          "name": "n",
          "type": "string"
        },
        {
          "internalType": "string",
          "name": "pass",
          "type": "string"
        }
      ],
      "name": "addEducator",
      "outputs": [],
      "payable": false,
      "stateMutability": "nonpayable",
      "type": "function"
    },
    {
      "constant": true,
      "inputs": [
        {
          "internalType": "string",
          "name": "n",
          "type": "string"
        },
        {
          "internalType": "string",
          "name": "p",
          "type": "string"
        }
      ],
      "name": "studentLogin",
      "outputs": [
        {
          "internalType": "int256",
          "name": "",
          "type": "int256"
        },
        {
          "internalType": "bool",
          "name": "",
          "type": "bool"
        }
      ],
      "payable": false,
      "stateMutability": "view",
      "type": "function"
    },
    {
      "constant": true,
      "inputs": [
        {
          "internalType": "string",
          "name": "n",
          "type": "string"
        },
        {
          "internalType": "string",
          "name": "p",
          "type": "string"
        }
      ],
      "name": "educatorLogin",
      "outputs": [
        {
          "internalType": "int256",
          "name": "",
          "type": "int256"
        },
        {
          "internalType": "bool",
          "name": "",
          "type": "bool"
        }
      ],
      "payable": false,
      "stateMutability": "view",
      "type": "function"
    },
    {
      "constant": false,
      "inputs": [
        {
          "internalType": "string",
          "name": "n",
          "type": "string"
        },
        {
          "internalType": "string",
          "name": "desc",
          "type": "string"
        },
        {
          "internalType": "string",
          "name": "auth",
          "type": "string"
        },
        {
          "internalType": "int256",
          "name": "p",
          "type": "int256"
        },
        {
          "internalType": "int256",
          "name": "d",
          "type": "int256"
        },
        {
          "internalType": "int256",
          "name": "e_id",
          "type": "int256"
        }
      ],
      "name": "addCourse",
      "outputs": [],
      "payable": false,
      "stateMutability": "nonpayable",
      "type": "function"
    },
    {
      "constant": false,
      "inputs": [
        {
          "internalType": "int256",
          "name": "s_id",
          "type": "int256"
        },
        {
          "internalType": "int256",
          "name": "c_id",
          "type": "int256"
        },
        {
          "internalType": "int256",
          "name": "_time",
          "type": "int256"
        },
        {
          "internalType": "int256",
          "name": "e_id",
          "type": "int256"
        }
      ],
      "name": "buyCourse",
      "outputs": [],
      "payable": false,
      "stateMutability": "nonpayable",
      "type": "function"
    },
    {
      "constant": false,
      "inputs": [
        {
          "internalType": "int256",
          "name": "s_id",
          "type": "int256"
        },
        {
          "internalType": "int256",
          "name": "c_id",
          "type": "int256"
        },
        {
          "internalType": "int256",
          "name": "_m",
          "type": "int256"
        }
      ],
      "name": "reviewAssignment",
      "outputs": [],
      "payable": false,
      "stateMutability": "nonpayable",
      "type": "function"
    },
    {
      "constant": false,
      "inputs": [
        {
          "internalType": "int256",
          "name": "s_id",
          "type": "int256"
        },
        {
          "internalType": "int256",
          "name": "c_id",
          "type": "int256"
        },
        {
          "internalType": "int256",
          "name": "_time",
          "type": "int256"
        }
      ],
      "name": "submitAssignment",
      "outputs": [
        {
          "internalType": "bool",
          "name": "",
          "type": "bool"
        }
      ],
      "payable": false,
      "stateMutability": "nonpayable",
      "type": "function"
    },
    {
      "constant": true,
      "inputs": [
        {
          "internalType": "int256",
          "name": "_id",
          "type": "int256"
        }
      ],
      "name": "getCourse",
      "outputs": [
        {
          "components": [
            {
              "internalType": "int256",
              "name": "id",
              "type": "int256"
            },
            {
              "internalType": "string",
              "name": "name",
              "type": "string"
            },
            {
              "internalType": "string",
              "name": "description",
              "type": "string"
            },
            {
              "internalType": "string",
              "name": "author_name",
              "type": "string"
            },
            {
              "internalType": "int256",
              "name": "author_id",
              "type": "int256"
            },
            {
              "internalType": "int256",
              "name": "price",
              "type": "int256"
            },
            {
              "internalType": "int256",
              "name": "users",
              "type": "int256"
            },
            {
              "internalType": "int256",
              "name": "deadline",
              "type": "int256"
            }
          ],
          "internalType": "struct Edublocks.Course",
          "name": "",
          "type": "tuple"
        }
      ],
      "payable": false,
      "stateMutability": "view",
      "type": "function"
    },
    {
      "constant": true,
      "inputs": [
        {
          "internalType": "int256",
          "name": "_id",
          "type": "int256"
        }
      ],
      "name": "getStudent",
      "outputs": [
        {
          "components": [
            {
              "internalType": "int256",
              "name": "id",
              "type": "int256"
            },
            {
              "internalType": "string",
              "name": "user_name",
              "type": "string"
            },
            {
              "internalType": "string",
              "name": "password",
              "type": "string"
            },
            {
              "internalType": "int256",
              "name": "balance",
              "type": "int256"
            },
            {
              "internalType": "int256[]",
              "name": "courses_id",
              "type": "int256[]"
            },
            {
              "internalType": "int256[]",
              "name": "courses_deadline",
              "type": "int256[]"
            },
            {
              "internalType": "int256[]",
              "name": "marks",
              "type": "int256[]"
            }
          ],
          "internalType": "struct Edublocks.Student",
          "name": "",
          "type": "tuple"
        }
      ],
      "payable": false,
      "stateMutability": "view",
      "type": "function"
    },
    {
      "constant": true,
      "inputs": [
        {
          "internalType": "int256",
          "name": "_id",
          "type": "int256"
        }
      ],
      "name": "getEducator",
      "outputs": [
        {
          "components": [
            {
              "internalType": "int256",
              "name": "id",
              "type": "int256"
            },
            {
              "internalType": "string",
              "name": "user_name",
              "type": "string"
            },
            {
              "internalType": "string",
              "name": "password",
              "type": "string"
            },
            {
              "internalType": "int256",
              "name": "balance",
              "type": "int256"
            },
            {
              "internalType": "int256[]",
              "name": "courses_id",
              "type": "int256[]"
            }
          ],
          "internalType": "struct Edublocks.Educator",
          "name": "",
          "type": "tuple"
        }
      ],
      "payable": false,
      "stateMutability": "view",
      "type": "function"
    },
    {
      "constant": true,
      "inputs": [],
      "name": "getCourseCount",
      "outputs": [
        {
          "internalType": "int256",
          "name": "",
          "type": "int256"
        }
      ],
      "payable": false,
      "stateMutability": "view",
      "type": "function"
    }
  ],
  "bytecode": "0x608060405234801561001057600080fd5b50612305806100206000396000f3fe608060405234801561001057600080fd5b50600436106100b45760003560e01c8063c419f65b11610071578063c419f65b1461018c578063c839e9b5146101bd578063ce54417d146101ed578063d34b78981461021d578063e27bb1f71461024d578063e812eaa414610269576100b4565b80630fc70461146100b9578063163072e8146100d55780631b1fc4b6146100f15780638b24119b1461010d5780638db09d521461013d57806396cfda061461016e575b600080fd5b6100d360048036036100ce9190810190611953565b610285565b005b6100ef60048036036100ea91908101906119bf565b61046f565b005b61010b600480360361010691908101906118a1565b610677565b005b610127600480360361012291908101906118a1565b610884565b6040516101349190611fd3565b60405180910390f35b61015760048036036101529190810190611953565b610a02565b604051610165929190612009565b60405180910390f35b610176610b37565b6040516101839190611fee565b60405180910390f35b6101a660048036036101a19190810190611953565b610b41565b6040516101b4929190612009565b60405180910390f35b6101d760048036036101d29190810190611878565b610c76565b6040516101e491906120f2565b60405180910390f35b61020760048036036102029190810190611878565b610ebc565b6040516102149190612136565b60405180910390f35b61023760048036036102329190810190611878565b611149565b6040516102449190612114565b60405180910390f35b61026760048036036102629190810190611953565b611326565b005b610283600480360361027e91908101906118f0565b6114b3565b005b600660003373ffffffffffffffffffffffffffffffffffffffff1673ffffffffffffffffffffffffffffffffffffffff16815260200190815260200160002060009054906101000a900460ff1615610312576040517f08c379a0000000000000000000000000000000000000000000000000000000008152600401610309906120d2565b60405180910390fd5b6001600081548092919060010191905055506001546004600060015481526020019081526020016000206000018190555081600460006001548152602001908152602001600020600101908051906020019061036f9291906116b9565b5080600460006001548152602001908152602001600020600201908051906020019061039c9291906116b9565b506000600460006001548152602001908152602001600020600301819055506001600660003373ffffffffffffffffffffffffffffffffffffffff1673ffffffffffffffffffffffffffffffffffffffff16815260200190815260200160002060006101000a81548160ff0219169083151502179055506001600760003373ffffffffffffffffffffffffffffffffffffffff1673ffffffffffffffffffffffffffffffffffffffff16815260200190815260200160002060006101000a81548160ff0219169083151502179055505050565b600760003373ffffffffffffffffffffffffffffffffffffffff1673ffffffffffffffffffffffffffffffffffffffff16815260200190815260200160002060009054906101000a900460ff166104fb576040517f08c379a00000000000000000000000000000000000000000000000000000000081526004016104f290612072565b60405180910390fd5b600260008154809291906001019190505550600254600560006002548152602001908152602001600020600001819055508560056000600254815260200190815260200160002060010190805190602001906105589291906116b9565b508460056000600254815260200190815260200160002060020190805190602001906105859291906116b9565b508360056000600254815260200190815260200160002060030190805190602001906105b29291906116b9565b508060056000600254815260200190815260200160002060040181905550826005600060025481526020019081526020016000206005018190555060006005600060025481526020019081526020016000206006018190555062015180820260056000600254815260200190815260200160002060070181905550600460008281526020019081526020016000206004016002549080600181540180825580915050906001820390600052602060002001600090919290919091505550505050505050565b600760003373ffffffffffffffffffffffffffffffffffffffff1673ffffffffffffffffffffffffffffffffffffffff16815260200190815260200160002060009054906101000a900460ff16610703576040517f08c379a00000000000000000000000000000000000000000000000000000000081526004016106fa90612092565b60405180910390fd5b60006003600085815260200190815260200160002060040180549050905060008090505b818110156107a0578360036000878152602001908152602001600020600401828154811061075157fe5b90600052602060002001541415610793578260036000878152602001908152602001600020600601828154811061078457fe5b90600052602060002001819055505b8080600101915050610727565b50605a82126107d3576014600360008681526020019081526020016000206003016000828254019250508190555061087e565b6050821261080557600a600360008681526020019081526020016000206003016000828254019250508190555061087d565b60468212610837576005600360008681526020019081526020016000206003016000828254019250508190555061087c565b602882121561087b576040517f08c379a000000000000000000000000000000000000000000000000000000000815260040161087290612052565b60405180910390fd5b5b5b5b50505050565b6000600760003373ffffffffffffffffffffffffffffffffffffffff1673ffffffffffffffffffffffffffffffffffffffff16815260200190815260200160002060009054906101000a900460ff1615610913576040517f08c379a000000000000000000000000000000000000000000000000000000000815260040161090a90612032565b60405180910390fd5b60006003600086815260200190815260200160002060040180549050905060008090505b818110156109f8578460036000888152602001908152602001600020600401828154811061096157fe5b906000526020600020015414156109eb5760036000878152602001908152602001600020600501818154811061099357fe5b906000526020600020015484136109af576001925050506109fb565b60006003600088815260200190815260200160002060060182815481106109d257fe5b90600052602060002001819055506000925050506109fb565b8080600101915050610937565b50505b9392505050565b6000806000600190505b6000548113610b045784604051602001610a269190611fa5565b6040516020818303038152906040528051906020012060036000838152602001908152602001600020600101604051602001610a629190611fbc565b60405160208183030381529060405280519060200120148015610ae5575083604051602001610a919190611fa5565b6040516020818303038152906040528051906020012060036000838152602001908152602001600020600201604051602001610acd9190611fbc565b60405160208183030381529060405280519060200120145b15610af7578060019250925050610b30565b8080600101915050610a0c565b507fffffffffffffffffffffffffffffffffffffffffffffffffffffffffffffffff6000819150915091505b9250929050565b6000600254905090565b6000806000600190505b6001548113610c435784604051602001610b659190611fa5565b6040516020818303038152906040528051906020012060046000838152602001908152602001600020600101604051602001610ba19190611fbc565b60405160208183030381529060405280519060200120148015610c24575083604051602001610bd09190611fa5565b6040516020818303038152906040528051906020012060046000838152602001908152602001600020600201604051602001610c0c9190611fbc565b60405160208183030381529060405280519060200120145b15610c36578060019250925050610c6f565b8080600101915050610b4b565b507fffffffffffffffffffffffffffffffffffffffffffffffffffffffffffffffff6000819150915091505b9250929050565b610c7e611739565b600560008381526020019081526020016000206040518061010001604052908160008201548152602001600182018054600181600116156101000203166002900480601f016020809104026020016040519081016040528092919081815260200182805460018160011615610100020316600290048015610d405780601f10610d1557610100808354040283529160200191610d40565b820191906000526020600020905b815481529060010190602001808311610d2357829003601f168201915b50505050508152602001600282018054600181600116156101000203166002900480601f016020809104026020016040519081016040528092919081815260200182805460018160011615610100020316600290048015610de25780601f10610db757610100808354040283529160200191610de2565b820191906000526020600020905b815481529060010190602001808311610dc557829003601f168201915b50505050508152602001600382018054600181600116156101000203166002900480601f016020809104026020016040519081016040528092919081815260200182805460018160011615610100020316600290048015610e845780601f10610e5957610100808354040283529160200191610e84565b820191906000526020600020905b815481529060010190602001808311610e6757829003601f168201915b505050505081526020016004820154815260200160058201548152602001600682015481526020016007820154815250509050919050565b610ec461177e565b600360008381526020019081526020016000206040518060e001604052908160008201548152602001600182018054600181600116156101000203166002900480601f016020809104026020016040519081016040528092919081815260200182805460018160011615610100020316600290048015610f855780601f10610f5a57610100808354040283529160200191610f85565b820191906000526020600020905b815481529060010190602001808311610f6857829003601f168201915b50505050508152602001600282018054600181600116156101000203166002900480601f0160208091040260200160405190810160405280929190818152602001828054600181600116156101000203166002900480156110275780601f10610ffc57610100808354040283529160200191611027565b820191906000526020600020905b81548152906001019060200180831161100a57829003601f168201915b50505050508152602001600382015481526020016004820180548060200260200160405190810160405280929190818152602001828054801561108957602002820191906000526020600020905b815481526020019060010190808311611075575b50505050508152602001600582018054806020026020016040519081016040528092919081815260200182805480156110e157602002820191906000526020600020905b8154815260200190600101908083116110cd575b505050505081526020016006820180548060200260200160405190810160405280929190818152602001828054801561113957602002820191906000526020600020905b815481526020019060010190808311611125575b5050505050815250509050919050565b6111516117bb565b600460008381526020019081526020016000206040518060a001604052908160008201548152602001600182018054600181600116156101000203166002900480601f0160208091040260200160405190810160405280929190818152602001828054600181600116156101000203166002900480156112125780601f106111e757610100808354040283529160200191611212565b820191906000526020600020905b8154815290600101906020018083116111f557829003601f168201915b50505050508152602001600282018054600181600116156101000203166002900480601f0160208091040260200160405190810160405280929190818152602001828054600181600116156101000203166002900480156112b45780601f10611289576101008083540402835291602001916112b4565b820191906000526020600020905b81548152906001019060200180831161129757829003601f168201915b50505050508152602001600382015481526020016004820180548060200260200160405190810160405280929190818152602001828054801561131657602002820191906000526020600020905b815481526020019060010190808311611302575b5050505050815250509050919050565b600660003373ffffffffffffffffffffffffffffffffffffffff1673ffffffffffffffffffffffffffffffffffffffff16815260200190815260200160002060009054906101000a900460ff16156113b3576040517f08c379a00000000000000000000000000000000000000000000000000000000081526004016113aa906120d2565b60405180910390fd5b6000808154809291906001019190505550600054600360008054815260200190815260200160002060000181905550816003600080548152602001908152602001600020600101908051906020019061140d9291906116b9565b5080600360008054815260200190815260200160002060020190805190602001906114399291906116b9565b5060006003600080548152602001908152602001600020600301819055506001600660003373ffffffffffffffffffffffffffffffffffffffff1673ffffffffffffffffffffffffffffffffffffffff16815260200190815260200160002060006101000a81548160ff0219169083151502179055505050565b600760003373ffffffffffffffffffffffffffffffffffffffff1673ffffffffffffffffffffffffffffffffffffffff16815260200190815260200160002060009054906101000a900460ff1615611540576040517f08c379a0000000000000000000000000000000000000000000000000000000008152600401611537906120b2565b60405180910390fd5b600560008481526020019081526020016000206006016000815480929190600101919050555060036000858152602001908152602001600020600401839080600181540180825580915050906001820390600052602060002001600090919290919091505550600360008581526020019081526020016000206005018260056000868152602001908152602001600020600701540190806001815401808255809150509060018203906000526020600020016000909192909190915055506005600084815260200190815260200160002060050154600360008681526020019081526020016000206003016000828254039250508190555060056000848152602001908152602001600020600501546004600083815260200190815260200160002060030160008282540192505081905550600360008581526020019081526020016000206006016000908060018154018082558091505090600182039060005260206000200160009091929091909150555050505050565b828054600181600116156101000203166002900490600052602060002090601f016020900481019282601f106116fa57805160ff1916838001178555611728565b82800160010185558215611728579182015b8281111561172757825182559160200191906001019061170c565b5b50905061173591906117ea565b5090565b60405180610100016040528060008152602001606081526020016060815260200160608152602001600081526020016000815260200160008152602001600081525090565b6040518060e00160405280600081526020016060815260200160608152602001600081526020016060815260200160608152602001606081525090565b6040518060a0016040528060008152602001606081526020016060815260200160008152602001606081525090565b61180c91905b808211156118085760008160009055506001016117f0565b5090565b90565b60008135905061181e816122ab565b92915050565b600082601f83011261183557600080fd5b813561184861184382612185565b612158565b9150808252602083016020830185838301111561186457600080fd5b61186f838284612258565b50505092915050565b60006020828403121561188a57600080fd5b60006118988482850161180f565b91505092915050565b6000806000606084860312156118b657600080fd5b60006118c48682870161180f565b93505060206118d58682870161180f565b92505060406118e68682870161180f565b9150509250925092565b6000806000806080858703121561190657600080fd5b60006119148782880161180f565b94505060206119258782880161180f565b93505060406119368782880161180f565b92505060606119478782880161180f565b91505092959194509250565b6000806040838503121561196657600080fd5b600083013567ffffffffffffffff81111561198057600080fd5b61198c85828601611824565b925050602083013567ffffffffffffffff8111156119a957600080fd5b6119b585828601611824565b9150509250929050565b60008060008060008060c087890312156119d857600080fd5b600087013567ffffffffffffffff8111156119f257600080fd5b6119fe89828a01611824565b965050602087013567ffffffffffffffff811115611a1b57600080fd5b611a2789828a01611824565b955050604087013567ffffffffffffffff811115611a4457600080fd5b611a5089828a01611824565b9450506060611a6189828a0161180f565b9350506080611a7289828a0161180f565b92505060a0611a8389828a0161180f565b9150509295509295509295565b6000611a9c8383611b15565b60208301905092915050565b6000611ab3826121d6565b611abd8185612204565b9350611ac8836121b1565b8060005b83811015611af9578151611ae08882611a90565b9750611aeb836121f7565b925050600181019050611acc565b5085935050505092915050565b611b0f81612242565b82525050565b611b1e8161224e565b82525050565b611b2d8161224e565b82525050565b6000611b3e826121ec565b611b488185612237565b9350611b58818560208601612267565b80840191505092915050565b6000611b6f826121e1565b611b798185612215565b9350611b89818560208601612267565b611b928161229a565b840191505092915050565b600081546001811660008114611bba5760018114611bdf57611c23565b607f6002830416611bcb8187612237565b955060ff1983168652808601935050611c23565b60028204611bed8187612237565b9550611bf8856121c1565b60005b82811015611c1a57815481890152600182019150602081019050611bfb565b82880195505050505b505092915050565b6000611c38601f83612226565b91507f4e6f7420617574686f72697a656420746f207375626d697420636f75727365006000830152602082019050919050565b6000611c78601783612226565b91507f536f7272792c20796f752068617665206661696c65642e0000000000000000006000830152602082019050919050565b6000611cb8601c83612226565b91507f4e6f7420617574686f72697a656420746f2061646420636f75727365000000006000830152602082019050919050565b6000611cf8601f83612226565b91507f4e6f7420617574686f72697a656420746f2072657669657720636f75727365006000830152602082019050919050565b6000611d38601c83612226565b91507f4e6f7420617574686f72697a656420746f2062757920636f75727365000000006000830152602082019050919050565b6000611d78601b83612226565b91507f4164647265737320616c726561647920686173206163636f756e7400000000006000830152602082019050919050565b600061010083016000830151611dc46000860182611b15565b5060208301518482036020860152611ddc8282611b64565b91505060408301518482036040860152611df68282611b64565b91505060608301518482036060860152611e108282611b64565b9150506080830151611e256080860182611b15565b5060a0830151611e3860a0860182611b15565b5060c0830151611e4b60c0860182611b15565b5060e0830151611e5e60e0860182611b15565b508091505092915050565b600060a083016000830151611e816000860182611b15565b5060208301518482036020860152611e998282611b64565b91505060408301518482036040860152611eb38282611b64565b9150506060830151611ec86060860182611b15565b5060808301518482036080860152611ee08282611aa8565b9150508091505092915050565b600060e083016000830151611f056000860182611b15565b5060208301518482036020860152611f1d8282611b64565b91505060408301518482036040860152611f378282611b64565b9150506060830151611f4c6060860182611b15565b5060808301518482036080860152611f648282611aa8565b91505060a083015184820360a0860152611f7e8282611aa8565b91505060c083015184820360c0860152611f988282611aa8565b9150508091505092915050565b6000611fb18284611b33565b915081905092915050565b6000611fc88284611b9d565b915081905092915050565b6000602082019050611fe86000830184611b06565b92915050565b60006020820190506120036000830184611b24565b92915050565b600060408201905061201e6000830185611b24565b61202b6020830184611b06565b9392505050565b6000602082019050818103600083015261204b81611c2b565b9050919050565b6000602082019050818103600083015261206b81611c6b565b9050919050565b6000602082019050818103600083015261208b81611cab565b9050919050565b600060208201905081810360008301526120ab81611ceb565b9050919050565b600060208201905081810360008301526120cb81611d2b565b9050919050565b600060208201905081810360008301526120eb81611d6b565b9050919050565b6000602082019050818103600083015261210c8184611dab565b905092915050565b6000602082019050818103600083015261212e8184611e69565b905092915050565b600060208201905081810360008301526121508184611eed565b905092915050565b6000604051905081810181811067ffffffffffffffff8211171561217b57600080fd5b8060405250919050565b600067ffffffffffffffff82111561219c57600080fd5b601f19601f8301169050602081019050919050565b6000819050602082019050919050565b60008190508160005260206000209050919050565b600081519050919050565b600081519050919050565b600081519050919050565b6000602082019050919050565b600082825260208201905092915050565b600082825260208201905092915050565b600082825260208201905092915050565b600081905092915050565b60008115159050919050565b6000819050919050565b82818337600083830152505050565b60005b8381101561228557808201518184015260208101905061226a565b83811115612294576000848401525b50505050565b6000601f19601f8301169050919050565b6122b48161224e565b81146122bf57600080fd5b5056fea365627a7a72315820c0dcf941acd68695bedfcddece9e94760e0536859cc1ea9b492ff544ca9007e96c6578706572696d656e74616cf564736f6c63430005100040",
  "source": "pragma solidity >=0.4.22 <0.8.0;\npragma experimental ABIEncoderV2;\n\ncontract Edublocks {\n    struct Student {\n        int256 id;\n        string user_name;\n        string password;\n        int256 balance;\n        int256[] courses_id;\n        int256[] courses_deadline;\n        int256[] marks;\n    }\n    struct Educator {\n        int256 id;\n        string user_name;\n        string password;\n        int256 balance;\n        int256[] courses_id;\n    }\n    struct Course {\n        int256 id;\n        string name;\n        string description;\n        string author_name;\n        int256 author_id;\n        int256 price;\n        int256 users;\n        int256 deadline;\n    }\n\n    int256 studentCount;\n    int256 educatorCount;\n    int256 courseCount;\n\n    mapping(int256 => Student) students;\n    mapping(int256 => Educator) educators;\n    mapping(int256 => Course) courses;\n    mapping(address => bool) hasAccount;\n    mapping(address => bool) isEducator;\n\n    function addStudent(string memory n, string memory pass) public {\n        require(!hasAccount[msg.sender], \"Address already has account\");\n        studentCount++;\n        students[studentCount].id = studentCount;\n        students[studentCount].user_name = n;\n        students[studentCount].password = pass;\n        students[studentCount].balance = 0;\n        hasAccount[msg.sender] = true;\n    }\n\n    function addEducator(string memory n, string memory pass) public {\n        require(!hasAccount[msg.sender], \"Address already has account\");\n        educatorCount++;\n        educators[educatorCount].id = educatorCount;\n        educators[educatorCount].user_name = n;\n        educators[educatorCount].password = pass;\n        educators[educatorCount].balance = 0;\n        hasAccount[msg.sender] = true;\n        isEducator[msg.sender] = true; // set the account as an Educator\n    }\n\n    function studentLogin(string memory n, string memory p)\n        public\n        view\n        returns (int256, bool)\n    {\n        //require(!isEducator[msg.sender], \"Cannot login as Student\"); //check if it's a student account\n        for (int256 i = 1; i <= studentCount; i++) {\n            if (\n                keccak256(abi.encodePacked(students[i].user_name)) ==\n                keccak256(abi.encodePacked(n)) &&\n                keccak256(abi.encodePacked(students[i].password)) ==\n                keccak256(abi.encodePacked(p))\n            ) {\n                return (i, true);\n            }\n        }\n        return (-1, false);\n    }\n\n    function educatorLogin(string memory n, string memory p)\n        public\n        view\n        returns (int256, bool)\n    {\n        // require(isEducator[msg.sender], \"Cannot login as Eeucator\"); //check if it's an Educator account\n        for (int256 i = 1; i <= educatorCount; i++) {\n            if (\n                keccak256(abi.encodePacked(educators[i].user_name)) ==\n                keccak256(abi.encodePacked(n)) &&\n                keccak256(abi.encodePacked(educators[i].password)) ==\n                keccak256(abi.encodePacked(p))\n            ) {\n                return (i, true);\n            }\n        }\n        return (-1, false);\n    }\n\n    function addCourse(\n        string memory n,\n        string memory desc,\n        string memory auth,\n        int256 p,\n        int256 d,\n        int256 e_id\n    ) public {\n        require(isEducator[msg.sender], \"Not authorized to add course\"); //check if it's an Educator account\n        courseCount++;\n        courses[courseCount].id = courseCount;\n        courses[courseCount].name = n;\n        courses[courseCount].description = desc;\n        courses[courseCount].author_name = auth;\n        courses[courseCount].author_id = e_id;\n        courses[courseCount].price = p;\n        courses[courseCount].users = 0;\n        courses[courseCount].deadline = d * 1 days;\n        //adding course ID to educator struct\n        educators[e_id].courses_id.push(courseCount);\n    }\n\n    function buyCourse(\n        int256 s_id,\n        int256 c_id,\n        int256 _time,\n        int256 e_id\n    ) public {\n        require(!isEducator[msg.sender], \"Not authorized to buy course\"); //check if it's a Student account\n        courses[c_id].users++;\n        students[s_id].courses_id.push(c_id);\n        students[s_id].courses_deadline.push(courses[c_id].deadline + _time);\n        students[s_id].balance -= courses[c_id].price; //deducting student balance\n        educators[e_id].balance += courses[c_id].price; //payment for educator\n        students[s_id].marks.push(0); //initializing marks for course\n    }\n\n    function reviewAssignment(\n        int256 s_id,\n        int256 c_id,\n        int256 _m\n    ) public {\n        require(isEducator[msg.sender], \"Not authorized to review course\"); //only educator can review assignments\n        uint256 totalCourses = students[s_id].courses_id.length;\n        for (uint256 i = 0; i < totalCourses; i++) {\n            if (students[s_id].courses_id[i] == c_id) {\n                students[s_id].marks[i] = _m;\n            }\n        }\n        if (_m >= 90) {\n            students[s_id].balance += 20;\n        } else if (_m >= 80) {\n            students[s_id].balance += 10;\n        } else if (_m >= 70) {\n            students[s_id].balance += 5;\n        } else if (_m < 40) {\n            revert(\"Sorry, you have failed.\");\n        }\n    }\n\n    function submitAssignment(\n        int256 s_id,\n        int256 c_id,\n        int256 _time\n    ) public returns (bool) {\n        require(!isEducator[msg.sender], \"Not authorized to submit course\"); //check if it's a Student account\n        uint256 totalCourses = students[s_id].courses_id.length;\n        for (uint256 i = 0; i < totalCourses; i++) {\n            if (students[s_id].courses_id[i] == c_id) {\n                if (_time <= students[s_id].courses_deadline[i]) {\n                    return (true);\n                }\n                //if deadline passed,set marks=0\n                else {\n                    students[s_id].marks[i] = 0;\n                    return (false);\n                }\n            }\n        }\n    }\n\n    function getCourse(int256 _id) public view returns (Course memory) {\n        return (courses[_id]);\n    }\n\n    function getStudent(int256 _id) public view returns (Student memory) {\n        return (students[_id]);\n    }\n\n    function getEducator(int256 _id) public view returns (Educator memory) {\n        return (educators[_id]);\n    }\n\n    function getCourseCount() public view returns (int256) {\n        return (courseCount);\n    }\n}\n",
  "sourcePath": "D:\\Blockchain sem 7\\edublocks (1)\\contracts\\Edublocks.sol",
  "compiler": {
    "name": "solc",
    "version": "0.5.16+commit.9c3226ce.Emscripten.clang"
  },
  "schemaVersion": "3.4.16",
  "updatedAt": "2025-10-21T15:12:36.839Z",
  "networkType": "ethereum",
  "devdoc": {
    "methods": {}
  },
  "userdoc": {
    "methods": {}
  }
}